{
  "_format": "hh-sol-artifact-1",
  "contractName": "Domains",
  "sourceName": "contracts/Domains.sol",
  "abi": [
    {
      "inputs": [
        {
          "internalType": "string",
          "name": "_tld",
          "type": "string"
        }
      ],
      "stateMutability": "payable",
      "type": "constructor"
    },
    {
      "anonymous": false,
      "inputs": [
        {
          "indexed": true,
          "internalType": "address",
          "name": "owner",
          "type": "address"
        },
        {
          "indexed": true,
          "internalType": "address",
          "name": "approved",
          "type": "address"
        },
        {
          "indexed": true,
          "internalType": "uint256",
          "name": "tokenId",
          "type": "uint256"
        }
      ],
      "name": "Approval",
      "type": "event"
    },
    {
      "anonymous": false,
      "inputs": [
        {
          "indexed": true,
          "internalType": "address",
          "name": "owner",
          "type": "address"
        },
        {
          "indexed": true,
          "internalType": "address",
          "name": "operator",
          "type": "address"
        },
        {
          "indexed": false,
          "internalType": "bool",
          "name": "approved",
          "type": "bool"
        }
      ],
      "name": "ApprovalForAll",
      "type": "event"
    },
    {
      "anonymous": false,
      "inputs": [
        {
          "indexed": true,
          "internalType": "address",
          "name": "from",
          "type": "address"
        },
        {
          "indexed": true,
          "internalType": "address",
          "name": "to",
          "type": "address"
        },
        {
          "indexed": true,
          "internalType": "uint256",
          "name": "tokenId",
          "type": "uint256"
        }
      ],
      "name": "Transfer",
      "type": "event"
    },
    {
      "inputs": [
        {
          "internalType": "address",
          "name": "to",
          "type": "address"
        },
        {
          "internalType": "uint256",
          "name": "tokenId",
          "type": "uint256"
        }
      ],
      "name": "approve",
      "outputs": [],
      "stateMutability": "nonpayable",
      "type": "function"
    },
    {
      "inputs": [
        {
          "internalType": "address",
          "name": "owner",
          "type": "address"
        }
      ],
      "name": "balanceOf",
      "outputs": [
        {
          "internalType": "uint256",
          "name": "",
          "type": "uint256"
        }
      ],
      "stateMutability": "view",
      "type": "function"
    },
    {
      "inputs": [
        {
          "internalType": "string",
          "name": "",
          "type": "string"
        }
      ],
      "name": "domains",
      "outputs": [
        {
          "internalType": "address",
          "name": "",
          "type": "address"
        }
      ],
      "stateMutability": "view",
      "type": "function"
    },
    {
      "inputs": [
        {
          "internalType": "string",
          "name": "name",
          "type": "string"
        }
      ],
      "name": "getAddress",
      "outputs": [
        {
          "internalType": "address",
          "name": "",
          "type": "address"
        }
      ],
      "stateMutability": "view",
      "type": "function"
    },
    {
      "inputs": [
        {
          "internalType": "uint256",
          "name": "tokenId",
          "type": "uint256"
        }
      ],
      "name": "getApproved",
      "outputs": [
        {
          "internalType": "address",
          "name": "",
          "type": "address"
        }
      ],
      "stateMutability": "view",
      "type": "function"
    },
    {
      "inputs": [
        {
          "internalType": "string",
          "name": "name",
          "type": "string"
        }
      ],
      "name": "getRecord",
      "outputs": [
        {
          "internalType": "string",
          "name": "",
          "type": "string"
        }
      ],
      "stateMutability": "view",
      "type": "function"
    },
    {
      "inputs": [
        {
          "internalType": "address",
          "name": "owner",
          "type": "address"
        },
        {
          "internalType": "address",
          "name": "operator",
          "type": "address"
        }
      ],
      "name": "isApprovedForAll",
      "outputs": [
        {
          "internalType": "bool",
          "name": "",
          "type": "bool"
        }
      ],
      "stateMutability": "view",
      "type": "function"
    },
    {
      "inputs": [],
      "name": "isOwner",
      "outputs": [
        {
          "internalType": "bool",
          "name": "",
          "type": "bool"
        }
      ],
      "stateMutability": "view",
      "type": "function"
    },
    {
      "inputs": [],
      "name": "name",
      "outputs": [
        {
          "internalType": "string",
          "name": "",
          "type": "string"
        }
      ],
      "stateMutability": "view",
      "type": "function"
    },
    {
      "inputs": [],
      "name": "owner",
      "outputs": [
        {
          "internalType": "address payable",
          "name": "",
          "type": "address"
        }
      ],
      "stateMutability": "view",
      "type": "function"
    },
    {
      "inputs": [
        {
          "internalType": "uint256",
          "name": "tokenId",
          "type": "uint256"
        }
      ],
      "name": "ownerOf",
      "outputs": [
        {
          "internalType": "address",
          "name": "",
          "type": "address"
        }
      ],
      "stateMutability": "view",
      "type": "function"
    },
    {
      "inputs": [
        {
          "internalType": "string",
          "name": "name",
          "type": "string"
        }
      ],
      "name": "price",
      "outputs": [
        {
          "internalType": "uint256",
          "name": "",
          "type": "uint256"
        }
      ],
      "stateMutability": "pure",
      "type": "function"
    },
    {
      "inputs": [
        {
          "internalType": "string",
          "name": "",
          "type": "string"
        }
      ],
      "name": "records",
      "outputs": [
        {
          "internalType": "string",
          "name": "",
          "type": "string"
        }
      ],
      "stateMutability": "view",
      "type": "function"
    },
    {
      "inputs": [
        {
          "internalType": "string",
          "name": "name",
          "type": "string"
        }
      ],
      "name": "register",
      "outputs": [],
      "stateMutability": "payable",
      "type": "function"
    },
    {
      "inputs": [
        {
          "internalType": "address",
          "name": "from",
          "type": "address"
        },
        {
          "internalType": "address",
          "name": "to",
          "type": "address"
        },
        {
          "internalType": "uint256",
          "name": "tokenId",
          "type": "uint256"
        }
      ],
      "name": "safeTransferFrom",
      "outputs": [],
      "stateMutability": "nonpayable",
      "type": "function"
    },
    {
      "inputs": [
        {
          "internalType": "address",
          "name": "from",
          "type": "address"
        },
        {
          "internalType": "address",
          "name": "to",
          "type": "address"
        },
        {
          "internalType": "uint256",
          "name": "tokenId",
          "type": "uint256"
        },
        {
          "internalType": "bytes",
          "name": "_data",
          "type": "bytes"
        }
      ],
      "name": "safeTransferFrom",
      "outputs": [],
      "stateMutability": "nonpayable",
      "type": "function"
    },
    {
      "inputs": [
        {
          "internalType": "address",
          "name": "operator",
          "type": "address"
        },
        {
          "internalType": "bool",
          "name": "approved",
          "type": "bool"
        }
      ],
      "name": "setApprovalForAll",
      "outputs": [],
      "stateMutability": "nonpayable",
      "type": "function"
    },
    {
      "inputs": [
        {
          "internalType": "string",
          "name": "name",
          "type": "string"
        },
        {
          "internalType": "string",
          "name": "record",
          "type": "string"
        }
      ],
      "name": "setRecord",
      "outputs": [],
      "stateMutability": "nonpayable",
      "type": "function"
    },
    {
      "inputs": [
        {
          "internalType": "bytes4",
          "name": "interfaceId",
          "type": "bytes4"
        }
      ],
      "name": "supportsInterface",
      "outputs": [
        {
          "internalType": "bool",
          "name": "",
          "type": "bool"
        }
      ],
      "stateMutability": "view",
      "type": "function"
    },
    {
      "inputs": [],
      "name": "symbol",
      "outputs": [
        {
          "internalType": "string",
          "name": "",
          "type": "string"
        }
      ],
      "stateMutability": "view",
      "type": "function"
    },
    {
      "inputs": [],
      "name": "tld",
      "outputs": [
        {
          "internalType": "string",
          "name": "",
          "type": "string"
        }
      ],
      "stateMutability": "view",
      "type": "function"
    },
    {
      "inputs": [
        {
          "internalType": "uint256",
          "name": "tokenId",
          "type": "uint256"
        }
      ],
      "name": "tokenURI",
      "outputs": [
        {
          "internalType": "string",
          "name": "",
          "type": "string"
        }
      ],
      "stateMutability": "view",
      "type": "function"
    },
    {
      "inputs": [
        {
          "internalType": "address",
          "name": "from",
          "type": "address"
        },
        {
          "internalType": "address",
          "name": "to",
          "type": "address"
        },
        {
          "internalType": "uint256",
          "name": "tokenId",
          "type": "uint256"
        }
      ],
      "name": "transferFrom",
      "outputs": [],
      "stateMutability": "nonpayable",
      "type": "function"
    },
    {
      "inputs": [],
      "name": "withdraw",
      "outputs": [],
      "stateMutability": "nonpayable",
      "type": "function"
    }
  ],
  "bytecode": "0x6080604052604051806108a0016040528061086b815260200162004cd361086b91396009908051906020019062000038929190620002c8565b506040518060400160405280600d81526020017f3c2f746578743e3c2f7376673e00000000000000000000000000000000000000815250600a908051906020019062000086929190620002c8565b506040516200553e3803806200553e8339818101604052810190620000ac919062000515565b6040518060400160405280601281526020017f4e696e6a61204e616d65205365727669636500000000000000000000000000008152506040518060400160405280600381526020017f4e4e530000000000000000000000000000000000000000000000000000000000815250816000908051906020019062000130929190620002c8565b50806001908051906020019062000149929190620002c8565b50505033600d60006101000a81548173ffffffffffffffffffffffffffffffffffffffff021916908373ffffffffffffffffffffffffffffffffffffffff1602179055508060089080519060200190620001a5929190620002c8565b50620001f26040518060400160405280601881526020017f2573206e616d652073657276696365206465706c6f796564000000000000000081525082620001f960201b620017721760201c565b5062000663565b6200029b828260405160240162000212929190620005c3565b6040516020818303038152906040527f4b5c4277000000000000000000000000000000000000000000000000000000007bffffffffffffffffffffffffffffffffffffffffffffffffffffffff19166020820180517bffffffffffffffffffffffffffffffffffffffffffffffffffffffff83818316178352505050506200029f60201b60201c565b5050565b60008151905060006a636f6e736f6c652e6c6f679050602083016000808483855afa5050505050565b828054620002d6906200062d565b90600052602060002090601f016020900481019282620002fa576000855562000346565b82601f106200031557805160ff191683800117855562000346565b8280016001018555821562000346579182015b828111156200034557825182559160200191906001019062000328565b5b50905062000355919062000359565b5090565b5b80821115620003745760008160009055506001016200035a565b5090565b6000604051905090565b600080fd5b600080fd5b600080fd5b600080fd5b6000601f19601f8301169050919050565b7f4e487b7100000000000000000000000000000000000000000000000000000000600052604160045260246000fd5b620003e18262000396565b810181811067ffffffffffffffff82111715620004035762000402620003a7565b5b80604052505050565b60006200041862000378565b9050620004268282620003d6565b919050565b600067ffffffffffffffff821115620004495762000448620003a7565b5b620004548262000396565b9050602081019050919050565b60005b838110156200048157808201518184015260208101905062000464565b8381111562000491576000848401525b50505050565b6000620004ae620004a8846200042b565b6200040c565b905082815260208101848484011115620004cd57620004cc62000391565b5b620004da84828562000461565b509392505050565b600082601f830112620004fa57620004f96200038c565b5b81516200050c84826020860162000497565b91505092915050565b6000602082840312156200052e576200052d62000382565b5b600082015167ffffffffffffffff8111156200054f576200054e62000387565b5b6200055d84828501620004e2565b91505092915050565b600081519050919050565b600082825260208201905092915050565b60006200058f8262000566565b6200059b818562000571565b9350620005ad81856020860162000461565b620005b88162000396565b840191505092915050565b60006040820190508181036000830152620005df818562000582565b90508181036020830152620005f5818462000582565b90509392505050565b7f4e487b7100000000000000000000000000000000000000000000000000000000600052602260045260246000fd5b600060028204905060018216806200064657607f821691505b602082108114156200065d576200065c620005fe565b5b50919050565b61466080620006736000396000f3fe60806040526004361061014b5760003560e01c806370a08231116100b6578063bf40fac11161006f578063bf40fac1146104b6578063c1880a98146104f3578063c87b56dd1461051c578063e985e9c514610559578063f2c298be14610596578063fe2c6198146105b25761014b565b806370a08231146103a65780638da5cb5b146103e35780638f32d59b1461040e57806395d89b4114610439578063a22cb46514610464578063b88d4fde1461048d5761014b565b8063264492351161010857806326449235146102845780632d551432146102c15780633ccfd60b146102ec57806342842e0e14610303578063541e771d1461032c5780636352211e146103695761014b565b806301ffc9a71461015057806306fdde031461018d578063081812fc146101b8578063095ea7b3146101f557806311dd88451461021e57806323b872dd1461025b575b600080fd5b34801561015c57600080fd5b5061017760048036038101906101729190612bb8565b6105ef565b6040516101849190612c00565b60405180910390f35b34801561019957600080fd5b506101a26106d1565b6040516101af9190612cb4565b60405180910390f35b3480156101c457600080fd5b506101df60048036038101906101da9190612d0c565b610763565b6040516101ec9190612d7a565b60405180910390f35b34801561020157600080fd5b5061021c60048036038101906102179190612dc1565b6107e8565b005b34801561022a57600080fd5b5061024560048036038101906102409190612e66565b610900565b6040516102529190612cb4565b60405180910390f35b34801561026757600080fd5b50610282600480360381019061027d9190612eb3565b6109b3565b005b34801561029057600080fd5b506102ab60048036038101906102a69190613036565b610a13565b6040516102b89190612d7a565b60405180910390f35b3480156102cd57600080fd5b506102d6610a5c565b6040516102e39190612cb4565b60405180910390f35b3480156102f857600080fd5b50610301610aea565b005b34801561030f57600080fd5b5061032a60048036038101906103259190612eb3565b610bb0565b005b34801561033857600080fd5b50610353600480360381019061034e9190613036565b610bd0565b6040516103609190612cb4565b60405180910390f35b34801561037557600080fd5b50610390600480360381019061038b9190612d0c565b610c86565b60405161039d9190612d7a565b60405180910390f35b3480156103b257600080fd5b506103cd60048036038101906103c8919061307f565b610d38565b6040516103da91906130bb565b60405180910390f35b3480156103ef57600080fd5b506103f8610df0565b60405161040591906130f7565b60405180910390f35b34801561041a57600080fd5b50610423610e16565b6040516104309190612c00565b60405180910390f35b34801561044557600080fd5b5061044e610e6e565b60405161045b9190612cb4565b60405180910390f35b34801561047057600080fd5b5061048b6004803603810190610486919061313e565b610f00565b005b34801561049957600080fd5b506104b460048036038101906104af919061321f565b610f16565b005b3480156104c257600080fd5b506104dd60048036038101906104d89190612e66565b610f78565b6040516104ea9190612d7a565b60405180910390f35b3480156104ff57600080fd5b5061051a600480360381019061051591906132a2565b610fc3565b005b34801561052857600080fd5b50610543600480360381019061053e9190612d0c565b611071565b6040516105509190612cb4565b60405180910390f35b34801561056557600080fd5b50610580600480360381019061057b9190613323565b6111c3565b60405161058d9190612c00565b60405180910390f35b6105b060048036038101906105ab9190612e66565b611257565b005b3480156105be57600080fd5b506105d960048036038101906105d49190612e66565b6116cc565b6040516105e691906130bb565b60405180910390f35b60007f80ac58cd000000000000000000000000000000000000000000000000000000007bffffffffffffffffffffffffffffffffffffffffffffffffffffffff1916827bffffffffffffffffffffffffffffffffffffffffffffffffffffffff191614806106ba57507f5b5e139f000000000000000000000000000000000000000000000000000000007bffffffffffffffffffffffffffffffffffffffffffffffffffffffff1916827bffffffffffffffffffffffffffffffffffffffffffffffffffffffff1916145b806106ca57506106c98261180e565b5b9050919050565b6060600080546106e090613392565b80601f016020809104026020016040519081016040528092919081815260200182805461070c90613392565b80156107595780601f1061072e57610100808354040283529160200191610759565b820191906000526020600020905b81548152906001019060200180831161073c57829003601f168201915b5050505050905090565b600061076e82611878565b6107ad576040517f08c379a00000000000000000000000000000000000000000000000000000000081526004016107a490613436565b60405180910390fd5b6004600083815260200190815260200160002060009054906101000a900473ffffffffffffffffffffffffffffffffffffffff169050919050565b60006107f382610c86565b90508073ffffffffffffffffffffffffffffffffffffffff168373ffffffffffffffffffffffffffffffffffffffff161415610864576040517f08c379a000000000000000000000000000000000000000000000000000000000815260040161085b906134c8565b60405180910390fd5b8073ffffffffffffffffffffffffffffffffffffffff166108836118e4565b73ffffffffffffffffffffffffffffffffffffffff1614806108b257506108b1816108ac6118e4565b6111c3565b5b6108f1576040517f08c379a00000000000000000000000000000000000000000000000000000000081526004016108e89061355a565b60405180910390fd5b6108fb83836118ec565b505050565b6060600c83836040516109149291906135aa565b9081526020016040518091039020805461092d90613392565b80601f016020809104026020016040519081016040528092919081815260200182805461095990613392565b80156109a65780601f1061097b576101008083540402835291602001916109a6565b820191906000526020600020905b81548152906001019060200180831161098957829003601f168201915b5050505050905092915050565b6109c46109be6118e4565b826119a5565b610a03576040517f08c379a00000000000000000000000000000000000000000000000000000000081526004016109fa90613635565b60405180910390fd5b610a0e838383611a83565b505050565b600b818051602081018201805184825260208301602085012081835280955050505050506000915054906101000a900473ffffffffffffffffffffffffffffffffffffffff1681565b60088054610a6990613392565b80601f0160208091040260200160405190810160405280929190818152602001828054610a9590613392565b8015610ae25780601f10610ab757610100808354040283529160200191610ae2565b820191906000526020600020905b815481529060010190602001808311610ac557829003601f168201915b505050505081565b610af2610e16565b610afb57600080fd5b600047905060003373ffffffffffffffffffffffffffffffffffffffff1682604051610b2690613686565b60006040518083038185875af1925050503d8060008114610b63576040519150601f19603f3d011682016040523d82523d6000602084013e610b68565b606091505b5050905080610bac576040517f08c379a0000000000000000000000000000000000000000000000000000000008152600401610ba3906136e7565b60405180910390fd5b5050565b610bcb83838360405180602001604052806000815250610f16565b505050565b600c818051602081018201805184825260208301602085012081835280955050505050506000915090508054610c0590613392565b80601f0160208091040260200160405190810160405280929190818152602001828054610c3190613392565b8015610c7e5780601f10610c5357610100808354040283529160200191610c7e565b820191906000526020600020905b815481529060010190602001808311610c6157829003601f168201915b505050505081565b6000806002600084815260200190815260200160002060009054906101000a900473ffffffffffffffffffffffffffffffffffffffff169050600073ffffffffffffffffffffffffffffffffffffffff168173ffffffffffffffffffffffffffffffffffffffff161415610d2f576040517f08c379a0000000000000000000000000000000000000000000000000000000008152600401610d2690613779565b60405180910390fd5b80915050919050565b60008073ffffffffffffffffffffffffffffffffffffffff168273ffffffffffffffffffffffffffffffffffffffff161415610da9576040517f08c379a0000000000000000000000000000000000000000000000000000000008152600401610da09061380b565b60405180910390fd5b600360008373ffffffffffffffffffffffffffffffffffffffff1673ffffffffffffffffffffffffffffffffffffffff168152602001908152602001600020549050919050565b600d60009054906101000a900473ffffffffffffffffffffffffffffffffffffffff1681565b6000600d60009054906101000a900473ffffffffffffffffffffffffffffffffffffffff1673ffffffffffffffffffffffffffffffffffffffff163373ffffffffffffffffffffffffffffffffffffffff1614905090565b606060018054610e7d90613392565b80601f0160208091040260200160405190810160405280929190818152602001828054610ea990613392565b8015610ef65780601f10610ecb57610100808354040283529160200191610ef6565b820191906000526020600020905b815481529060010190602001808311610ed957829003601f168201915b5050505050905090565b610f12610f0b6118e4565b8383611cea565b5050565b610f27610f216118e4565b836119a5565b610f66576040517f08c379a0000000000000000000000000000000000000000000000000000000008152600401610f5d90613635565b60405180910390fd5b610f7284848484611e57565b50505050565b6000600b8383604051610f8c9291906135aa565b908152602001604051809103902060009054906101000a900473ffffffffffffffffffffffffffffffffffffffff16905092915050565b3373ffffffffffffffffffffffffffffffffffffffff16600b8585604051610fec9291906135aa565b908152602001604051809103902060009054906101000a900473ffffffffffffffffffffffffffffffffffffffff1673ffffffffffffffffffffffffffffffffffffffff161461103b57600080fd5b8181600c868660405161104f9291906135aa565b9081526020016040518091039020919061106a929190612a23565b5050505050565b606061107c82611878565b6110bb576040517f08c379a00000000000000000000000000000000000000000000000000000000081526004016110b29061389d565b60405180910390fd5b60006006600084815260200190815260200160002080546110db90613392565b80601f016020809104026020016040519081016040528092919081815260200182805461110790613392565b80156111545780601f1061112957610100808354040283529160200191611154565b820191906000526020600020905b81548152906001019060200180831161113757829003601f168201915b505050505090506000611165611eb3565b905060008151141561117b5781925050506111be565b6000825111156111b05780826040516020016111989291906138ee565b604051602081830303815290604052925050506111be565b6111b984611eca565b925050505b919050565b6000600560008473ffffffffffffffffffffffffffffffffffffffff1673ffffffffffffffffffffffffffffffffffffffff16815260200190815260200160002060008373ffffffffffffffffffffffffffffffffffffffff1673ffffffffffffffffffffffffffffffffffffffff16815260200190815260200160002060009054906101000a900460ff16905092915050565b600073ffffffffffffffffffffffffffffffffffffffff16600b83836040516112819291906135aa565b908152602001604051809103902060009054906101000a900473ffffffffffffffffffffffffffffffffffffffff1673ffffffffffffffffffffffffffffffffffffffff16146112d057600080fd5b60006112dc83836116cc565b905080341015611321576040517f08c379a00000000000000000000000000000000000000000000000000000000081526004016113189061395e565b60405180910390fd5b6000600d60009054906101000a900473ffffffffffffffffffffffffffffffffffffffff1673ffffffffffffffffffffffffffffffffffffffff16346103e89060405161136d90613686565b600060405180830381858888f193505050503d80600081146113ab576040519150601f19603f3d011682016040523d82523d6000602084013e6113b0565b606091505b505090506000848460086040516020016113cc93929190613a5e565b60405160208183030381529060405290506000600982600a6040516020016113f693929190613a8f565b604051602081830303815290604052905060006114136007611f71565b9050600061146488888080601f016020809104026020016040519081016040528093929190818152602001838380828437600081840152601f19601f82011690508083019250505050505050611f7f565b9050600061147182612134565b9050611565604051806060016040528060318152602001614581603191398a8a8080601f016020809104026020016040519081016040528093929190818152602001838380828437600081840152601f19601f82011690508083019250505050505050600880546114e190613392565b80601f016020809104026020016040519081016040528092919081815260200182805461150d90613392565b801561155a5780601f1061152f5761010080835404028352916020019161155a565b820191906000526020600020905b81548152906001019060200180831161153d57829003601f168201915b505050505086612295565b600061159b8661157487612337565b8460405160200161158793929190613c3c565b604051602081830303815290604052612337565b90506000816040516020016115b09190613ce5565b60405160208183030381529060405290506115e2604051806060016040528060398152602001614548603991396124cf565b6116216040518060400160405280600e81526020017f46696e616c20746f6b656e55524900000000000000000000000000000000000081525082611772565b6116426040518060600160405280603981526020016145b2603991396124cf565b61164c3386612568565b6116568582612586565b33600b8c8c6040516116699291906135aa565b908152602001604051809103902060006101000a81548173ffffffffffffffffffffffffffffffffffffffff021916908373ffffffffffffffffffffffffffffffffffffffff1602179055506116bf60076125fa565b5050505050505050505050565b60008061171c84848080601f016020809104026020016040519081016040528093929190818152602001838380828437600081840152601f19601f82011690508083019250505050505050611f7f565b90506000811161172b57600080fd5b6003811415611745576706f05b59d3b2000091505061176c565b600481141561175f57670429d069189e000091505061176c565b67016345785d8a00009150505b92915050565b61180a8282604051602401611788929190613d07565b6040516020818303038152906040527f4b5c4277000000000000000000000000000000000000000000000000000000007bffffffffffffffffffffffffffffffffffffffffffffffffffffffff19166020820180517bffffffffffffffffffffffffffffffffffffffffffffffffffffffff8381831617835250505050612610565b5050565b60007f01ffc9a7000000000000000000000000000000000000000000000000000000007bffffffffffffffffffffffffffffffffffffffffffffffffffffffff1916827bffffffffffffffffffffffffffffffffffffffffffffffffffffffff1916149050919050565b60008073ffffffffffffffffffffffffffffffffffffffff166002600084815260200190815260200160002060009054906101000a900473ffffffffffffffffffffffffffffffffffffffff1673ffffffffffffffffffffffffffffffffffffffff1614159050919050565b600033905090565b816004600083815260200190815260200160002060006101000a81548173ffffffffffffffffffffffffffffffffffffffff021916908373ffffffffffffffffffffffffffffffffffffffff160217905550808273ffffffffffffffffffffffffffffffffffffffff1661195f83610c86565b73ffffffffffffffffffffffffffffffffffffffff167f8c5be1e5ebec7d5bd14f71427d1e84f3dd0314c0f7b2291e5b200ac8c7c3b92560405160405180910390a45050565b60006119b082611878565b6119ef576040517f08c379a00000000000000000000000000000000000000000000000000000000081526004016119e690613db0565b60405180910390fd5b60006119fa83610c86565b90508073ffffffffffffffffffffffffffffffffffffffff168473ffffffffffffffffffffffffffffffffffffffff161480611a3c5750611a3b81856111c3565b5b80611a7a57508373ffffffffffffffffffffffffffffffffffffffff16611a6284610763565b73ffffffffffffffffffffffffffffffffffffffff16145b91505092915050565b8273ffffffffffffffffffffffffffffffffffffffff16611aa382610c86565b73ffffffffffffffffffffffffffffffffffffffff1614611af9576040517f08c379a0000000000000000000000000000000000000000000000000000000008152600401611af090613e42565b60405180910390fd5b600073ffffffffffffffffffffffffffffffffffffffff168273ffffffffffffffffffffffffffffffffffffffff161415611b69576040517f08c379a0000000000000000000000000000000000000000000000000000000008152600401611b6090613ed4565b60405180910390fd5b611b74838383612639565b611b7f6000826118ec565b6001600360008573ffffffffffffffffffffffffffffffffffffffff1673ffffffffffffffffffffffffffffffffffffffff1681526020019081526020016000206000828254611bcf9190613f23565b925050819055506001600360008473ffffffffffffffffffffffffffffffffffffffff1673ffffffffffffffffffffffffffffffffffffffff1681526020019081526020016000206000828254611c269190613f57565b92505081905550816002600083815260200190815260200160002060006101000a81548173ffffffffffffffffffffffffffffffffffffffff021916908373ffffffffffffffffffffffffffffffffffffffff160217905550808273ffffffffffffffffffffffffffffffffffffffff168473ffffffffffffffffffffffffffffffffffffffff167fddf252ad1be2c89b69c2b068fc378daa952ba7f163c4a11628f55a4df523b3ef60405160405180910390a4611ce583838361263e565b505050565b8173ffffffffffffffffffffffffffffffffffffffff168373ffffffffffffffffffffffffffffffffffffffff161415611d59576040517f08c379a0000000000000000000000000000000000000000000000000000000008152600401611d5090613ff9565b60405180910390fd5b80600560008573ffffffffffffffffffffffffffffffffffffffff1673ffffffffffffffffffffffffffffffffffffffff16815260200190815260200160002060008473ffffffffffffffffffffffffffffffffffffffff1673ffffffffffffffffffffffffffffffffffffffff16815260200190815260200160002060006101000a81548160ff0219169083151502179055508173ffffffffffffffffffffffffffffffffffffffff168373ffffffffffffffffffffffffffffffffffffffff167f17307eab39ab6107e8899845ad3d59bd9653f200f220920489ca2b5937696c3183604051611e4a9190612c00565b60405180910390a3505050565b611e62848484611a83565b611e6e84848484612643565b611ead576040517f08c379a0000000000000000000000000000000000000000000000000000000008152600401611ea49061408b565b60405180910390fd5b50505050565b606060405180602001604052806000815250905090565b6060611ed582611878565b611f14576040517f08c379a0000000000000000000000000000000000000000000000000000000008152600401611f0b9061411d565b60405180910390fd5b6000611f1e611eb3565b90506000815111611f3e5760405180602001604052806000815250611f69565b80611f4884612134565b604051602001611f599291906138ee565b6040516020818303038152906040525b915050919050565b600081600001549050919050565b60008060008084519050600092505b80821015612129576000858381518110611fab57611faa61413d565b5b602001015160f81c60f81b9050608060f81b817effffffffffffffffffffffffffffffffffffffffffffffffffffffffffffff19161015611ffa57600183611ff39190613f57565b9250612115565b60e060f81b817effffffffffffffffffffffffffffffffffffffffffffffffffffffffffffff1916101561203c576002836120359190613f57565b9250612114565b60f060f81b817effffffffffffffffffffffffffffffffffffffffffffffffffffffffffffff1916101561207e576003836120779190613f57565b9250612113565b60f8801b817effffffffffffffffffffffffffffffffffffffffffffffffffffffffffffff191610156120bf576004836120b89190613f57565b9250612112565b60fc60f81b817effffffffffffffffffffffffffffffffffffffffffffffffffffffffffffff19161015612101576005836120fa9190613f57565b9250612111565b60068361210e9190613f57565b92505b5b5b5b5b5082806121219061416c565b935050611f8e565b829350505050919050565b6060600082141561217c576040518060400160405280600181526020017f30000000000000000000000000000000000000000000000000000000000000008152509050612290565b600082905060005b600082146121ae5780806121979061416c565b915050600a826121a791906141e4565b9150612184565b60008167ffffffffffffffff8111156121ca576121c9612f0b565b5b6040519080825280601f01601f1916602001820160405280156121fc5781602001600182028036833780820191505090505b5090505b60008514612289576001826122159190613f23565b9150600a856122249190614215565b60306122309190613f57565b60f81b8183815181106122465761224561413d565b5b60200101907effffffffffffffffffffffffffffffffffffffffffffffffffffffffffffff1916908160001a905350600a8561228291906141e4565b9450612200565b8093505050505b919050565b612331848484846040516024016122af9493929190614246565b6040516020818303038152906040527f9fd009f5000000000000000000000000000000000000000000000000000000007bffffffffffffffffffffffffffffffffffffffffffffffffffffffff19166020820180517bffffffffffffffffffffffffffffffffffffffffffffffffffffffff8381831617835250505050612610565b50505050565b6060600082519050600081141561236057604051806020016040528060008152509150506124ca565b600060036002836123719190613f57565b61237b91906141e4565b600461238791906142a0565b905060006020826123989190613f57565b67ffffffffffffffff8111156123b1576123b0612f0b565b5b6040519080825280601f01601f1916602001820160405280156123e35781602001600182028036833780820191505090505b50905060006040518060600160405280604081526020016145eb604091399050600181016020830160005b868110156124875760038101905062ffffff818a015116603f8160121c168401518060081b905060ff603f83600c1c1686015116810190508060081b905060ff603f8360061c1686015116810190508060081b905060ff603f831686015116810190508060e01b9050808452600484019350505061240e565b5060038606600181146124a157600281146124b1576124bc565b613d3d60f01b60028303526124bc565b603d60f81b60018303525b508484525050819450505050505b919050565b612565816040516024016124e39190612cb4565b6040516020818303038152906040527f41304fac000000000000000000000000000000000000000000000000000000007bffffffffffffffffffffffffffffffffffffffffffffffffffffffff19166020820180517bffffffffffffffffffffffffffffffffffffffffffffffffffffffff8381831617835250505050612610565b50565b6125828282604051806020016040528060008152506127cb565b5050565b61258f82611878565b6125ce576040517f08c379a00000000000000000000000000000000000000000000000000000000081526004016125c59061436c565b60405180910390fd5b806006600084815260200190815260200160002090805190602001906125f5929190612aa9565b505050565b6001816000016000828254019250508190555050565b60008151905060006a636f6e736f6c652e6c6f679050602083016000808483855afa5050505050565b505050565b505050565b60006126648473ffffffffffffffffffffffffffffffffffffffff16612826565b156127be578373ffffffffffffffffffffffffffffffffffffffff1663150b7a0261268d6118e4565b8786866040518563ffffffff1660e01b81526004016126af94939291906143e1565b6020604051808303816000875af19250505080156126eb57506040513d601f19601f820116820180604052508101906126e89190614442565b60015b61276e573d806000811461271b576040519150601f19603f3d011682016040523d82523d6000602084013e612720565b606091505b50600081511415612766576040517f08c379a000000000000000000000000000000000000000000000000000000000815260040161275d9061408b565b60405180910390fd5b805181602001fd5b63150b7a0260e01b7bffffffffffffffffffffffffffffffffffffffffffffffffffffffff1916817bffffffffffffffffffffffffffffffffffffffffffffffffffffffff1916149150506127c3565b600190505b949350505050565b6127d58383612849565b6127e26000848484612643565b612821576040517f08c379a00000000000000000000000000000000000000000000000000000000081526004016128189061408b565b60405180910390fd5b505050565b6000808273ffffffffffffffffffffffffffffffffffffffff163b119050919050565b600073ffffffffffffffffffffffffffffffffffffffff168273ffffffffffffffffffffffffffffffffffffffff1614156128b9576040517f08c379a00000000000000000000000000000000000000000000000000000000081526004016128b0906144bb565b60405180910390fd5b6128c281611878565b15612902576040517f08c379a00000000000000000000000000000000000000000000000000000000081526004016128f990614527565b60405180910390fd5b61290e60008383612639565b6001600360008473ffffffffffffffffffffffffffffffffffffffff1673ffffffffffffffffffffffffffffffffffffffff168152602001908152602001600020600082825461295e9190613f57565b92505081905550816002600083815260200190815260200160002060006101000a81548173ffffffffffffffffffffffffffffffffffffffff021916908373ffffffffffffffffffffffffffffffffffffffff160217905550808273ffffffffffffffffffffffffffffffffffffffff16600073ffffffffffffffffffffffffffffffffffffffff167fddf252ad1be2c89b69c2b068fc378daa952ba7f163c4a11628f55a4df523b3ef60405160405180910390a4612a1f6000838361263e565b5050565b828054612a2f90613392565b90600052602060002090601f016020900481019282612a515760008555612a98565b82601f10612a6a57803560ff1916838001178555612a98565b82800160010185558215612a98579182015b82811115612a97578235825591602001919060010190612a7c565b5b509050612aa59190612b2f565b5090565b828054612ab590613392565b90600052602060002090601f016020900481019282612ad75760008555612b1e565b82601f10612af057805160ff1916838001178555612b1e565b82800160010185558215612b1e579182015b82811115612b1d578251825591602001919060010190612b02565b5b509050612b2b9190612b2f565b5090565b5b80821115612b48576000816000905550600101612b30565b5090565b6000604051905090565b600080fd5b600080fd5b60007fffffffff0000000000000000000000000000000000000000000000000000000082169050919050565b612b9581612b60565b8114612ba057600080fd5b50565b600081359050612bb281612b8c565b92915050565b600060208284031215612bce57612bcd612b56565b5b6000612bdc84828501612ba3565b91505092915050565b60008115159050919050565b612bfa81612be5565b82525050565b6000602082019050612c156000830184612bf1565b92915050565b600081519050919050565b600082825260208201905092915050565b60005b83811015612c55578082015181840152602081019050612c3a565b83811115612c64576000848401525b50505050565b6000601f19601f8301169050919050565b6000612c8682612c1b565b612c908185612c26565b9350612ca0818560208601612c37565b612ca981612c6a565b840191505092915050565b60006020820190508181036000830152612cce8184612c7b565b905092915050565b6000819050919050565b612ce981612cd6565b8114612cf457600080fd5b50565b600081359050612d0681612ce0565b92915050565b600060208284031215612d2257612d21612b56565b5b6000612d3084828501612cf7565b91505092915050565b600073ffffffffffffffffffffffffffffffffffffffff82169050919050565b6000612d6482612d39565b9050919050565b612d7481612d59565b82525050565b6000602082019050612d8f6000830184612d6b565b92915050565b612d9e81612d59565b8114612da957600080fd5b50565b600081359050612dbb81612d95565b92915050565b60008060408385031215612dd857612dd7612b56565b5b6000612de685828601612dac565b9250506020612df785828601612cf7565b9150509250929050565b600080fd5b600080fd5b600080fd5b60008083601f840112612e2657612e25612e01565b5b8235905067ffffffffffffffff811115612e4357612e42612e06565b5b602083019150836001820283011115612e5f57612e5e612e0b565b5b9250929050565b60008060208385031215612e7d57612e7c612b56565b5b600083013567ffffffffffffffff811115612e9b57612e9a612b5b565b5b612ea785828601612e10565b92509250509250929050565b600080600060608486031215612ecc57612ecb612b56565b5b6000612eda86828701612dac565b9350506020612eeb86828701612dac565b9250506040612efc86828701612cf7565b9150509250925092565b600080fd5b7f4e487b7100000000000000000000000000000000000000000000000000000000600052604160045260246000fd5b612f4382612c6a565b810181811067ffffffffffffffff82111715612f6257612f61612f0b565b5b80604052505050565b6000612f75612b4c565b9050612f818282612f3a565b919050565b600067ffffffffffffffff821115612fa157612fa0612f0b565b5b612faa82612c6a565b9050602081019050919050565b82818337600083830152505050565b6000612fd9612fd484612f86565b612f6b565b905082815260208101848484011115612ff557612ff4612f06565b5b613000848285612fb7565b509392505050565b600082601f83011261301d5761301c612e01565b5b813561302d848260208601612fc6565b91505092915050565b60006020828403121561304c5761304b612b56565b5b600082013567ffffffffffffffff81111561306a57613069612b5b565b5b61307684828501613008565b91505092915050565b60006020828403121561309557613094612b56565b5b60006130a384828501612dac565b91505092915050565b6130b581612cd6565b82525050565b60006020820190506130d060008301846130ac565b92915050565b60006130e182612d39565b9050919050565b6130f1816130d6565b82525050565b600060208201905061310c60008301846130e8565b92915050565b61311b81612be5565b811461312657600080fd5b50565b60008135905061313881613112565b92915050565b6000806040838503121561315557613154612b56565b5b600061316385828601612dac565b925050602061317485828601613129565b9150509250929050565b600067ffffffffffffffff82111561319957613198612f0b565b5b6131a282612c6a565b9050602081019050919050565b60006131c26131bd8461317e565b612f6b565b9050828152602081018484840111156131de576131dd612f06565b5b6131e9848285612fb7565b509392505050565b600082601f83011261320657613205612e01565b5b81356132168482602086016131af565b91505092915050565b6000806000806080858703121561323957613238612b56565b5b600061324787828801612dac565b945050602061325887828801612dac565b935050604061326987828801612cf7565b925050606085013567ffffffffffffffff81111561328a57613289612b5b565b5b613296878288016131f1565b91505092959194509250565b600080600080604085870312156132bc576132bb612b56565b5b600085013567ffffffffffffffff8111156132da576132d9612b5b565b5b6132e687828801612e10565b9450945050602085013567ffffffffffffffff81111561330957613308612b5b565b5b61331587828801612e10565b925092505092959194509250565b6000806040838503121561333a57613339612b56565b5b600061334885828601612dac565b925050602061335985828601612dac565b9150509250929050565b7f4e487b7100000000000000000000000000000000000000000000000000000000600052602260045260246000fd5b600060028204905060018216806133aa57607f821691505b602082108114156133be576133bd613363565b5b50919050565b7f4552433732313a20617070726f76656420717565727920666f72206e6f6e657860008201527f697374656e7420746f6b656e0000000000000000000000000000000000000000602082015250565b6000613420602c83612c26565b915061342b826133c4565b604082019050919050565b6000602082019050818103600083015261344f81613413565b9050919050565b7f4552433732313a20617070726f76616c20746f2063757272656e74206f776e6560008201527f7200000000000000000000000000000000000000000000000000000000000000602082015250565b60006134b2602183612c26565b91506134bd82613456565b604082019050919050565b600060208201905081810360008301526134e1816134a5565b9050919050565b7f4552433732313a20617070726f76652063616c6c6572206973206e6f74206f7760008201527f6e6572206e6f7220617070726f76656420666f7220616c6c0000000000000000602082015250565b6000613544603883612c26565b915061354f826134e8565b604082019050919050565b6000602082019050818103600083015261357381613537565b9050919050565b600081905092915050565b6000613591838561357a565b935061359e838584612fb7565b82840190509392505050565b60006135b7828486613585565b91508190509392505050565b7f4552433732313a207472616e736665722063616c6c6572206973206e6f74206f60008201527f776e6572206e6f7220617070726f766564000000000000000000000000000000602082015250565b600061361f603183612c26565b915061362a826135c3565b604082019050919050565b6000602082019050818103600083015261364e81613612565b9050919050565b600081905092915050565b50565b6000613670600083613655565b915061367b82613660565b600082019050919050565b600061369182613663565b9150819050919050565b7f4661696c656420746f207769746864726177204d617469630000000000000000600082015250565b60006136d1601883612c26565b91506136dc8261369b565b602082019050919050565b60006020820190508181036000830152613700816136c4565b9050919050565b7f4552433732313a206f776e657220717565727920666f72206e6f6e657869737460008201527f656e7420746f6b656e0000000000000000000000000000000000000000000000602082015250565b6000613763602983612c26565b915061376e82613707565b604082019050919050565b6000602082019050818103600083015261379281613756565b9050919050565b7f4552433732313a2062616c616e636520717565727920666f7220746865207a6560008201527f726f206164647265737300000000000000000000000000000000000000000000602082015250565b60006137f5602a83612c26565b915061380082613799565b604082019050919050565b60006020820190508181036000830152613824816137e8565b9050919050565b7f45524337323155524953746f726167653a2055524920717565727920666f722060008201527f6e6f6e6578697374656e7420746f6b656e000000000000000000000000000000602082015250565b6000613887603183612c26565b91506138928261382b565b604082019050919050565b600060208201905081810360008301526138b68161387a565b9050919050565b60006138c882612c1b565b6138d2818561357a565b93506138e2818560208601612c37565b80840191505092915050565b60006138fa82856138bd565b915061390682846138bd565b91508190509392505050565b7f4e6f7420656e6f756768204d6174696320706169640000000000000000000000600082015250565b6000613948601583612c26565b915061395382613912565b602082019050919050565b600060208201905081810360008301526139778161393b565b9050919050565b7f2e00000000000000000000000000000000000000000000000000000000000000600082015250565b60006139b460018361357a565b91506139bf8261397e565b600182019050919050565b60008190508160005260206000209050919050565b600081546139ec81613392565b6139f6818661357a565b94506001821660008114613a115760018114613a2257613a55565b60ff19831686528186019350613a55565b613a2b856139ca565b60005b83811015613a4d57815481890152600182019150602081019050613a2e565b838801955050505b50505092915050565b6000613a6b828587613585565b9150613a76826139a7565b9150613a8282846139df565b9150819050949350505050565b6000613a9b82866139df565b9150613aa782856138bd565b9150613ab382846139df565b9150819050949350505050565b7f7b226e616d65223a202200000000000000000000000000000000000000000000600082015250565b6000613af6600a8361357a565b9150613b0182613ac0565b600a82019050919050565b7f222c20226465736372697074696f6e223a20224120646f6d61696e206f6e207460008201527f6865204e696e6a61206e616d652073657276696365222c2022696d616765223a60208201527f2022646174613a696d6167652f7376672b786d6c3b6261736536342c00000000604082015250565b6000613b8e605c8361357a565b9150613b9982613b0c565b605c82019050919050565b7f222c226c656e677468223a220000000000000000000000000000000000000000600082015250565b6000613bda600c8361357a565b9150613be582613ba4565b600c82019050919050565b7f227d000000000000000000000000000000000000000000000000000000000000600082015250565b6000613c2660028361357a565b9150613c3182613bf0565b600282019050919050565b6000613c4782613ae9565b9150613c5382866138bd565b9150613c5e82613b81565b9150613c6a82856138bd565b9150613c7582613bcd565b9150613c8182846138bd565b9150613c8c82613c19565b9150819050949350505050565b7f646174613a6170706c69636174696f6e2f6a736f6e3b6261736536342c000000600082015250565b6000613ccf601d8361357a565b9150613cda82613c99565b601d82019050919050565b6000613cf082613cc2565b9150613cfc82846138bd565b915081905092915050565b60006040820190508181036000830152613d218185612c7b565b90508181036020830152613d358184612c7b565b90509392505050565b7f4552433732313a206f70657261746f7220717565727920666f72206e6f6e657860008201527f697374656e7420746f6b656e0000000000000000000000000000000000000000602082015250565b6000613d9a602c83612c26565b9150613da582613d3e565b604082019050919050565b60006020820190508181036000830152613dc981613d8d565b9050919050565b7f4552433732313a207472616e736665722066726f6d20696e636f72726563742060008201527f6f776e6572000000000000000000000000000000000000000000000000000000602082015250565b6000613e2c602583612c26565b9150613e3782613dd0565b604082019050919050565b60006020820190508181036000830152613e5b81613e1f565b9050919050565b7f4552433732313a207472616e7366657220746f20746865207a65726f2061646460008201527f7265737300000000000000000000000000000000000000000000000000000000602082015250565b6000613ebe602483612c26565b9150613ec982613e62565b604082019050919050565b60006020820190508181036000830152613eed81613eb1565b9050919050565b7f4e487b7100000000000000000000000000000000000000000000000000000000600052601160045260246000fd5b6000613f2e82612cd6565b9150613f3983612cd6565b925082821015613f4c57613f4b613ef4565b5b828203905092915050565b6000613f6282612cd6565b9150613f6d83612cd6565b9250827fffffffffffffffffffffffffffffffffffffffffffffffffffffffffffffffff03821115613fa257613fa1613ef4565b5b828201905092915050565b7f4552433732313a20617070726f766520746f2063616c6c657200000000000000600082015250565b6000613fe3601983612c26565b9150613fee82613fad565b602082019050919050565b6000602082019050818103600083015261401281613fd6565b9050919050565b7f4552433732313a207472616e7366657220746f206e6f6e20455243373231526560008201527f63656976657220696d706c656d656e7465720000000000000000000000000000602082015250565b6000614075603283612c26565b915061408082614019565b604082019050919050565b600060208201905081810360008301526140a481614068565b9050919050565b7f4552433732314d657461646174613a2055524920717565727920666f72206e6f60008201527f6e6578697374656e7420746f6b656e0000000000000000000000000000000000602082015250565b6000614107602f83612c26565b9150614112826140ab565b604082019050919050565b60006020820190508181036000830152614136816140fa565b9050919050565b7f4e487b7100000000000000000000000000000000000000000000000000000000600052603260045260246000fd5b600061417782612cd6565b91507fffffffffffffffffffffffffffffffffffffffffffffffffffffffffffffffff8214156141aa576141a9613ef4565b5b600182019050919050565b7f4e487b7100000000000000000000000000000000000000000000000000000000600052601260045260246000fd5b60006141ef82612cd6565b91506141fa83612cd6565b92508261420a576142096141b5565b5b828204905092915050565b600061422082612cd6565b915061422b83612cd6565b92508261423b5761423a6141b5565b5b828206905092915050565b600060808201905081810360008301526142608187612c7b565b905081810360208301526142748186612c7b565b905081810360408301526142888185612c7b565b905061429760608301846130ac565b95945050505050565b60006142ab82612cd6565b91506142b683612cd6565b9250817fffffffffffffffffffffffffffffffffffffffffffffffffffffffffffffffff04831182151516156142ef576142ee613ef4565b5b828202905092915050565b7f45524337323155524953746f726167653a2055524920736574206f66206e6f6e60008201527f6578697374656e7420746f6b656e000000000000000000000000000000000000602082015250565b6000614356602e83612c26565b9150614361826142fa565b604082019050919050565b6000602082019050818103600083015261438581614349565b9050919050565b600081519050919050565b600082825260208201905092915050565b60006143b38261438c565b6143bd8185614397565b93506143cd818560208601612c37565b6143d681612c6a565b840191505092915050565b60006080820190506143f66000830187612d6b565b6144036020830186612d6b565b61441060408301856130ac565b818103606083015261442281846143a8565b905095945050505050565b60008151905061443c81612b8c565b92915050565b60006020828403121561445857614457612b56565b5b60006144668482850161442d565b91505092915050565b7f4552433732313a206d696e7420746f20746865207a65726f2061646472657373600082015250565b60006144a5602083612c26565b91506144b08261446f565b602082019050919050565b600060208201905081810360008301526144d481614498565b9050919050565b7f4552433732313a20746f6b656e20616c7265616479206d696e74656400000000600082015250565b6000614511601c83612c26565b915061451c826144db565b602082019050919050565b6000602082019050818103600083015261454081614504565b905091905056fe0a2d2d2d2d2d2d2d2d2d2d2d2d2d2d2d2d2d2d2d2d2d2d2d2d2d2d2d2d2d2d2d2d2d2d2d2d2d2d2d2d2d2d2d2d2d2d2d2d2d2d2d2d2d2d2d2d5265676973746572696e672025732e2573206f6e2074686520636f6e7472616374207769746820746f6b656e49442025642d2d2d2d2d2d2d2d2d2d2d2d2d2d2d2d2d2d2d2d2d2d2d2d2d2d2d2d2d2d2d2d2d2d2d2d2d2d2d2d2d2d2d2d2d2d2d2d2d2d2d2d2d2d2d2d0a4142434445464748494a4b4c4d4e4f505152535455565758595a6162636465666768696a6b6c6d6e6f707172737475767778797a303132333435363738392b2fa264697066735822122099845bbb28f1c7d7acdafe661a33cb8e8b111c5afb04fff200675fedd090975564736f6c634300080a00333c73766720786d6c6e733d22687474703a2f2f7777772e77332e6f72672f323030302f737667222077696474683d2232373022206865696768743d22323730222066696c6c3d226e6f6e65223e3c706174682066696c6c3d2275726c282342292220643d224d302030683237307632373048307a222f3e3c646566733e3c66696c7465722069643d22412220636f6c6f722d696e746572706f6c6174696f6e2d66696c746572733d2273524742222066696c746572556e6974733d227573657253706163654f6e55736522206865696768743d22323730222077696474683d22323730223e3c666544726f70536861646f772064783d2230222064793d22312220737464446576696174696f6e3d22322220666c6f6f642d6f7061636974793d222e323235222077696474683d223230302522206865696768743d2232303025222f3e3c2f66696c7465723e3c2f646566733e3c7061746820643d224d37322e3836332034322e393439632d2e3636382d2e3338372d312e3432362d2e35392d322e3139372d2e3539732d312e3532392e3230342d322e3139372e35396c2d31302e30383120362e3033322d362e383520332e3933342d31302e30383120362e303332632d2e3636382e3338372d312e3432362e35392d322e3139372e3539732d312e3532392d2e3230342d322e3139372d2e35396c2d382e3031332d342e37323161342e353220342e35322030203020312d312e3538392d312e363136632d2e3338342d2e3636352d2e3539342d312e3431382d2e3630382d322e313837762d392e3331632d2e3031332d2e3737352e3138352d312e3533382e3537322d322e32303861342e323520342e323520302030203120312e3632352d312e3539356c372e3838342d342e3539632e3636382d2e33383720312e3432362d2e353920322e3139372d2e353973312e3532392e32303420322e3139372e35396c372e38383420342e353961342e353220342e353220302030203120312e35383920312e363136632e3338342e3636352e35393420312e3431382e36303820322e31383776362e3033326c362e38352d342e303635762d362e303332632e3031332d2e3737352d2e3138352d312e3533382d2e3537322d322e32303861342e323520342e32352030203020302d312e3632352d312e3539354c34312e3435362032342e3539632d2e3636382d2e3338372d312e3432362d2e35392d322e3139372d2e3539732d312e3532392e3230342d322e3139372e35396c2d31342e38363420382e36353561342e323520342e32352030203020302d312e36323520312e353935632d2e3338372e36372d2e35383520312e3433342d2e35373220322e3230387631372e343431632d2e3031332e3737352e31383520312e3533382e35373220322e32303861342e323520342e323520302030203020312e36323520312e3539356c31342e38363420382e363535632e3636382e33383720312e3432362e353920322e3139372e353973312e3532392d2e32303420322e3139372d2e35396c31302e3038312d352e39303120362e38352d342e3036352031302e3038312d352e393031632e3636382d2e33383720312e3432362d2e353920322e3139372d2e353973312e3532392e32303420322e3139372e35396c372e38383420342e353961342e353220342e353220302030203120312e35383920312e363136632e3338342e3636352e35393420312e3431382e36303820322e31383776392e333131632e3031332e3737352d2e31383520312e3533382d2e35373220322e32303861342e323520342e32352030203020312d312e36323520312e3539356c2d372e38383420342e373231632d2e3636382e3338372d312e3432362e35392d322e3139372e3539732d312e3532392d2e3230342d322e3139372d2e35396c2d372e3838342d342e353961342e353220342e35322030203020312d312e3538392d312e363136632d2e3338352d2e3636352d2e3539342d312e3431382d2e3630382d322e313837762d362e3033326c2d362e383520342e30363576362e303332632d2e3031332e3737352e31383520312e3533382e35373220322e32303861342e323520342e323520302030203020312e36323520312e3539356c31342e38363420382e363535632e3636382e33383720312e3432362e353920322e3139372e353973312e3532392d2e32303420322e3139372d2e35396c31342e3836342d382e363535632e3635372d2e33393420312e3230342d2e393520312e3538392d312e363136732e3539342d312e3431382e3630392d322e3138375635352e353338632e3031332d2e3737352d2e3138352d312e3533382d2e3537322d322e32303861342e323520342e32352030203020302d312e3632352d312e3539356c2d31342e3939332d382e3738367a222066696c6c3d2223666666222f3e3c646566733e3c6c696e6561724772616469656e742069643d2242222078313d2230222079313d2230222078323d22323730222079323d2232373022206772616469656e74556e6974733d227573657253706163654f6e557365223e3c73746f702073746f702d636f6c6f723d2223636235656565222f3e3c73746f70206f66667365743d2231222073746f702d636f6c6f723d2223306364376534222073746f702d6f7061636974793d222e3939222f3e3c2f6c696e6561724772616469656e743e3c2f646566733e3c7465787420783d2233322e352220793d223233312220666f6e742d73697a653d223237222066696c6c3d2223666666222066696c7465723d2275726c282341292220666f6e742d66616d696c793d22506c7573204a616b617274612053616e732c44656a6156752053616e732c4e6f746f20436f6c6f7220456d6f6a692c4170706c6520436f6c6f7220456d6f6a692c73616e732d73657269662220666f6e742d7765696768743d22626f6c64223e",
  "linkReferences": {},
  "deployedLinkReferences": {}
}